:020000040800F2
:10000000C0450020B10200083D3C0008352700082B
:10001000812C00085B1C0008A747000800000000B6
:10002000000000000000000000000000E5010008E2
:10003000992200080000000029020008714200080F
:10004000CB020008CB020008CB020008CB0200085C
:10005000CB020008CB020008CB020008CB0200084C
:10006000CB020008CB020008CB020008CB0200083C
:10007000CB020008CB020008CB020008CB0200082C
:10008000CB020008CB020008CB020008CB0200081C
:10009000CB020008CB020008CB020008CB0200080C
:1000A000CB020008CB020008CB020008CB020008FC
:1000B000E1420008CB020008CB020008CB02000896
:1000C000CB020008CB020008CB020008CB020008DC
:1000D000CB02000885450008CB020008CB020008CF
:1000E000CB020008CB020008CB02000800F002F8A7
:1000F00000F068F80AA090E8000C82448344AAF15A
:100100000107DA4501D100F05DF8AFF2090EBAE857
:100110000F0013F0010F18BFFB1A43F0010318473B
:1001200064E8000084E8000010F8013B0A4413F082
:10013000030408BF10F8014B1D1108BF10F8015B44
:10014000641E05D010F8016B641E01F8016BF9D133
:10015000002D15D010F8014B03F00C030C2BA1EB74
:1001600004040ABF10F8013BA4EB8314A4EB03249E
:1001700005F1010314F8016B5B1E01F8016BF9D561
:10018000914238BF10F8013BD1D3704700230024BF
:1001900000250026103A28BF78C1FBD8520728BF97
:1001A00030C148BF0B607047642900F01581732986
:1001B00000F03183002070471FB500F022FA1FBD08
:1001C00010B510BD00F09AFB1146FFF7F5FF06F0E1
:1001D00097F800F0B8FB03B4FFF7F2FF03BC04F09C
:1001E000EBFA0000224B19680868B0E8F00F80F3C2
:1001F0000988BFF36F8F4FF0000080F311884EF035
:100200000D0E70470000000006480068006880F38B
:10021000088862B661B6BFF34F8FBFF36F8F00DF00
:1002200000BF00BF08ED00E0EFF30980BFF36F8F60
:100230000F4B1A6820E9F00F106008B54FF050001E
:1002400080F31188BFF34F8FBFF36F8F08F016FB59
:100250004FF0000080F31188BDE808401968086875
:10026000B0E8F00F80F30988BFF36F8F704700BFCD
:10027000DC100020EFF30580704700000B49D1F837
:1002800000C04A685CF8043B1068184442F8040B4C
:100290008C4528BFA1F1DC0C8A4228BFA1F1DC0209
:1002A000C1F800C04A6020F000407047583F00206D
:1002B0000948804709480047FEE7FEE7FEE7FEE7FA
:1002C000FEE7FEE7FEE7FEE7FEE7FEE70448054936
:1002D000054A064B7047000081420008ED00000807
:1002E000C03F0020C0450020C0410020C041002088
:1002F000704700000FB4044910B503AA029800F03B
:100300008FFA10BC5DF814FBC01000200FB41CB5B0
:10031000084B06AA7B4469460090059800F051FA04
:1003200004460020694600F05FFA20461CBC5DF8D8
:1003300014FB0000D104000070B504468569006814
:10034000C10601D5302600E02026C00707D070BDC9
:10035000D4E9012130469047206A401C20626D1E7E
:10036000F6D570BD70B5044685690078C00707D121
:1003700070BDD4E9012120209047206A401C2062F2
:100380006D1EF6D570BD70B50C460546012A05D028
:100390002878800600D5EA69002302E0012305E001
:1003A0005B1C934202D2E05C0028F9D1A869E618F0
:1003B000C01AA861286A184428622846FFF7BCFFC3
:1003C00004E0D5E9012114F8010B9047B442F8D3B9
:1003D0002846FFF7C7FF70BD2DE9F041064600240F
:1003E00010687529314616A510D0AFF3008000289B
:1003F00002DA404213A507E031688A0701D512A549
:1004000002E0490704D511A5012401E0AFF3008003
:1004100000210A2206F1240709E0B0FBF2FCB0FB40
:10042000F2F302FB1C00303078541846491C0028B7
:10043000F3D123462A463046BDE8F04100F062B9C8
:10044000000000002D0000002B0000002000000034
:100450002DE9F05F894604464FF0000ADFF874B1D9
:10046000FB44C0F820A02046E1688847002874D0EB
:10047000252806D0D4E901219047206A401C20623B
:10048000F1E700265F462046E168884720280546B8
:1004900007DB312D05D2781910F8200C08B106437E
:1004A000F1E7B00701D526F00406C4F81CA0002728
:1004B000C4F818A02A2D09D0284604F076F938B3DC
:1004C00004EB8708303DC8F8185019E059F8041BB0
:1004D000204604EB87029161E1688847012F0546B9
:1004E00018D1E069002820DA26F020061DE0D8F8AF
:1004F000180000EB800005EB40003038C8F8180009
:100500002046E1688847054604F04FF90028EED1FF
:10051000012F0AD02E2D08D12046E16888477F1C84
:100520000546022F46F02006C4DBA069002803DA46
:10053000404246F00106A061F00701D026F0100607
:100540006C2D0BD0682D09D04C2D39D06A2D35D0AB
:10055000742D35D07A2D33D016E038E0E1682F467F
:1005600020468847B842054609D16C2F26D04FF463
:100570008060E168064320468847054604E06C2F0A
:100580001AD04FF4807006430DB3A5F1410019282D
:1005900002D8203546F400664A46294620462660A1
:1005A0004E46FFF701FE80B101280BD0F61D26F064
:1005B000070000F1080956E74020E4E78020D8E76B
:1005C0000020D6E706F104094DE7284652E7206AE5
:1005D000BDE8F09F0CE500000B4910B5A1F17C02CD
:1005E0000A4CC2E93712372106E000EB104342F80B
:1005F0002130074B00FB03400B1EA1F10101F4DC8D
:1006000010BD0120E8E70000F83E0020E119D666A1
:10061000CD0D0100032A40F2308010F0030C00F0F1
:10062000158011F8013BBCF1020F624498BF11F82C
:1006300001CB00F8013B38BF11F8013BA2F10402E5
:1006400098BF00F801CB38BF00F8013B11F003035D
:1006500000F0F880083AC0F0088051F8043B083AEE
:1006600051F804CBA0E80810F5E7121D5CBF51F863
:10067000043B40F8043BAFF30080D20724BF11F8DD
:10068000013B11F801CB48BF11F8012B24BF00F842
:10069000013B00F801CB48BF00F8012B704702F086
:1006A000FF0343EA032242EA024200F0FFB84FF0A0
:1006B000000200B5134694469646203922BFA0E8B2
:1006C0000C50A0E80C50B1F12001BFF4F7AF0907BE
:1006D00028BFA0E80C5048BF0CC05DF804EB8900AF
:1006E00028BF40F8042B08BF704748BF20F8022BF2
:1006F00011F0804F18BF00F8012B7047704770470A
:10070000704770472DE9F0470D46994692460446DA
:1007100000F124080168880604D5E06921F0100181
:10072000216000E00120A84201DD471B00E0002716
:10073000A1697A1902EB0900081AA0612078C006A5
:1007400002D42046FFF7F8FD002608E0D4E9012195
:100750001AF806009047206A401C761C20624E451D
:10076000F4DB2078C0060AD52046FFF7E5FD06E059
:10077000D4E9012130209047206A401C2062381EB5
:10078000A7F10107F4DC07E0D4E9012118F805001E
:100790009047206A401C2062281EA5F10105F3DC69
:1007A0002046FFF7DFFD2078000602D50220BDE8D5
:1007B000F0870120FBE7000001694A1C026108780C
:1007C000704700B58FB0CDE9013100210591054991
:1007D0007944CDE9031011466846FFF739FE0FB0A2
:1007E00000BD0000E5FFFFFF0A6802F8010B0A6088
:1007F000704710B5436913B1AFF3008001E0FFF714
:10080000C2FD012010BD127800F124010A700022FF
:100810004A700122EDE711684FF0FF32E9E700006E
:10082000074B70B50D467B44FFF7CBFF04462846C7
:1008300000F05CF810B14FF0FF3070BD204670BD85
:100840009F46000010B5203AC0F00B80B1E8185068
:10085000203AA0E81850B1E81850A0E81850BFF4AA
:10086000F5AF5FEA027C24BFB1E81850A0E8185049
:1008700044BF18C918C0BDE810405FEA827C24BF9D
:1008800051F8043B40F8043B08BF7047D20728BF2B
:1008900031F8023B48BF11F8012B28BF20F8023B7A
:1008A00048BF00F8012B70474FF000020429C0F048
:1008B000128010F0030C3FF4FCAECCF1040CBCF140
:1008C000020F18BF00F8012BA8BF20F8022BA1EBE4
:1008D0000C01FFF7EEBE5FEAC17C24BF00F8012BDC
:1008E00000F8012B48BF00F8012B7047007B00F097
:1008F0008000704700487047603F00207546FFF752
:10090000F9FFAE4605006946534620F007008546CC
:1009100018B020B5FFF7DAFCBDE820404FF0000624
:100920004FF000074FF000084FF0000B21F00701D7
:10093000AC46ACE8C009ACE8C009ACE8C009ACE81A
:10094000C0098D46704710B50446AFF300802046BD
:10095000BDE81040FFF73FBC2DE9F04107460E46C9
:1009600015469846002408E02A5D3019C1B2434676
:10097000384600F049F8601CC4B2285D0028F3D165
:10098000BDE8F0812DE9F04107460E461546984630
:10099000002408E02A5D3019C1B24346384600F011
:1009A00075F8601CC4B2285D0028F3D1BDE8F08161
:1009B0002DE9F04107460E4615469846002408E00A
:1009C0002A5D3019C1B24346384600F0A5F8601CD4
:1009D000C4B2285D0028F3D1BDE8F0812DE9F041D3
:1009E00007460E4615469846002408E02A5D301951
:1009F000C1B24346384600F0C1F8601CC4B2285D5D
:100A00000028F3D1BDE8F0812DE9F0478046894602
:100A100014461D460027A4F12000C4B200262EE093
:100A200009EB49020C23C3EB8202D1B208EB0602A8
:100A3000521ED0B200F065FA4FF0000A1AE045B934
:100A400004EBC401104A02EB8101C85D00F0E8FC30
:100A50000AE04DB104EBC4010B4A02EB8101C95D10
:100A6000C943C8B200F0DCFC781CC7B20AF101002F
:100A700000F0FF0ABAF10C0FE1DB701CC6B2032EC6
:100A8000CEDBBDE8F08700009CA200082DE9F0470E
:100A90000546894614461E464FF00008A4F1200082
:100AA000C4B2002732E009EB49020623C3EB42023D
:100AB000D1B207EB4502921ED0B200F022FA4FF0FD
:100AC000000A1EE04EB904EB4401124A02EB810118
:100AD00011F8080000F0A4FC0BE056B104EB44014F
:100AE0000C4A02EB810111F80810C943C8B200F0AA
:100AF00097FC08F1010000F0FF080AF1010000F086
:100B0000FF0ABAF1060FDDDB781CC7B2022FCADB81
:100B1000BDE8F087389800082DE9F041074688467F
:100B200014461E46A4F12000C4B208EB4802062376
:100B3000C3EB4202D1B27A1ED0B200F0E2F9002536
:100B400016E046B904EB44010B4A02EB4101485D53
:100B500000F066FC0AE04EB104EB4401064A02EBE9
:100B60004101495DC943C8B200F05AFC681CC5B2D6
:100B7000062DE6DBBDE8F081109600082DE9F04770
:100B800005460E4614461F464FF00009A4F120000A
:100B9000C4B2C8462EE00822C2EBC602D1B208EBAE
:100BA0004502921ED0B200F0ACF94FF0000A1AE0F4
:100BB0003FB9134901EB041111F8090000F030FCB2
:100BC00009E047B10E4901EB041111F80910C943BE
:100BD000C8B200F025FC09F1010000F0FF090AF19C
:100BE000010000F0FF0ABAF1080FE1DB08F1010093
:100BF00000F0FF08B8F1020FCDDBBDE8F087000080
:100C0000AC9C000870B500240EE00021204600F0E6
:100C100078F9002504E0002000F002FC681CC5B251
:100C2000802DF8DB601CC4B2082CEEDB70BD000028
:100C3000F8B5054601F05CFF0A2802D104203949C5
:100C400008703948007800286BD138480078B0B96E
:100C5000002412E00021204600F053F9002608E0AD
:100C6000FF2000F0DDFB3249085D07F0FBFA701C45
:100C7000C6B2802EF4DB601CC4B2082CEADBFFF79E
:100C8000C1FFD5B9002302220121104600F064F90A
:100C9000002303220221084600F05EF9002304220B
:100CA0000321022000F058F90020032321A207218C
:100CB0000090022000F019FB19E000230722012117
:100CC000022000F049F9002308220221084600F022
:100CD00043F9002309220321022000F03DF90020FE
:100CE000032315A207210090022000F0FEFA002045
:100CF000012312A202210090072000F0F6FA012041
:100D0000052300900E4802881946072000F048FA93
:100D10004621002000F0E2F903480078401C024917
:100D20000870F8BD5D1100206A11002071110020CB
:100D3000089600082E2E2E002121210053433A0050
:100D40005411002008B50121082003F055F81420A3
:100D50008DF803004FF44070ADF8000003208DF8CB
:100D600002006946064801F069FB012211020448AD
:100D700001F033FC01225102014801F02EFC08BDB4
:100D8000000C014070B50546002415E0802020418C
:100D900000EA05024FF400710E4801F01EFC01222A
:100DA00011020C4801F019FC00224FF4807109482F
:100DB00001F013FC601CC4B2082CE7DB0122110215
:100DC000044801F00AFC00224FF48071014801F050
:100DD00004FC70BD000C014010B5012211020A484C
:100DE00001F0FBFB01225102074801F0F6FB002253
:100DF0004FF40071044801F0F0FB00224FF48071C1
:100E0000014801F0EAFB10BD000C014010B50022C2
:100E10004FF48071094801F0E0FB00224FF40071AB
:100E2000064801F0DAFB01221102044801F0D5FB6B
:100E300001225102014801F0D0FB10BD000C01401D
:100E400070B5002406E0002500E06D1CB5F57A7F42
:100E5000FBD3641CB4F57A7FF5D3FFF773FFAE20A4
:100E600000F0CEFAD52000F0CBFA802000F0C8FACE
:100E7000A82000F0C5FA3F2000F0C2FAD32000F00D
:100E8000BFFA002000F0BCFA402000F0B9FAA1201F
:100E900000F0B6FAC82000F0B3FADA2000F0B0FA99
:100EA000122000F0ADFA812000F0AAFACF2000F065
:100EB000A7FAD92000F0A4FAF12000F0A1FADB2073
:100EC00000F09EFA302000F09BFAA42000F098FA7F
:100ED000A62000F095FA8D2000F092FA142000F080
:100EE0008FFAAF2000F08CFAFFF78CFE70BD10B5C2
:100EF0000246012000E050430B1EA1F10101FAD18E
:100F000010BD70B505460C4645F0B00000F078FA0B
:100F1000102141EA141000F073FA04F00F0000F001
:100F20006FFA70BD70B5002411E000212046FFF774
:100F3000E8FF002507E0074901EBC411485D00F018
:100F40006FFA681CC5B2802DF5DB601CC4B2082C9A
:100F5000EBDB70BD01BB00082DE9F04705460E46EE
:100F6000174699460024A0462EE01022C2EB061236
:100F7000D1B20222C2EB45024244D0B2FFF7C1FF18
:100F80004FF0000A19E0B9F1000F08D1114901EB47
:100F90004711085D00F044FA601CC4B209E00D4935
:100FA00001EB4711095DC943C8B200F039FA601C72
:100FB000C4B20AF1010000F0FF0ABAF1100FE2DB3F
:100FC00008F1010000F0FF08B8F1020FCDDBBDE829
:100FD000F0870000F8AF00082DE9F0410326002754
:100FE00019252748B0F900002844714288420CDCDA
:100FF0007F2023490880FFF741F9032190FBF1F29C
:1010000001FB120000B21F4908801D48B0F9000022
:1010100000280BDA1A4800784042C7B2194909780B
:10102000491CC8B20021FFF76CFF07E0144A117891
:10103000144A1278521CD0B2FFF763FF3C4612E00C
:101040000F48B0F9000020447F2800DD0EE0AC42DC
:1010500004DA0D49085D00F0E3F902E0002000F039
:10106000DFF9601CC4B2A819A042E9DC00BF044843
:101070000088801B00B202490880BDE8F0810000B2
:101080008811002086110020D8B600082DE9F0470D
:10109000804689460525C02600210720FFF731FF3D
:1010A00000240DE00B480078204490FBF6F106FB8D
:1010B000110009490F5C384600F0B2F9601CC4B257
:1010C000802CEFDB03480078284402490870BDE813
:1010D000F08700007C11002058B400082DE9F04191
:1010E00006460F46002414E03119C8B23946FFF70E
:1010F00008FF002509E0C4EBC401084A02EBC10166
:10110000485D00F08DF9681CC5B2382DF3DB601C1A
:10111000C4B2082CE8DBBDE8F081000041B900084A
:101120002DE9F04705460E46174699460024A0468D
:101130002EE01022C2EB0612D1B20222C2EB45020F
:101140004244D0B2FFF7DDFE4FF0000A19E0B9F1DA
:10115000000F08D1114901EB4711085D00F060F95B
:10116000601CC4B209E00D4901EB4711095DC94398
:10117000C8B200F055F9601CC4B20AF1010000F0D9
:10118000FF0ABAF1100FE2DB08F1010000F0FF08DE
:10119000B8F1020FCDDBBDE8F087000038B10008E0
:1011A0002DE9F04780460E4617461D46DDF8209093
:1011B000B9F1010F09D0B9F1020F22D0B9F1030F33
:1011C0003BD0B9F1040F71D153E0002416E0681E42
:1011D000011B0A20FFF78BFEB7FBF0F00A21B0FBE2
:1011E000F1F201FB120000F1300A3019C1B2002304
:1011F00052464046FFF790FC601CC4B2AC42E6DBAE
:1012000070E0002416E0681E011B0A20FFF76FFE45
:10121000B7FBF0F00A21B0FBF1F201FB120000F184
:10122000300A3019C1B2002352464046FFF72EFC67
:10123000601CC4B2AC42E6DB54E0002416E0681E39
:10124000011B0A20FFF753FEB7FBF0F00A21B0FBA9
:10125000F1F201FB120000F1300A3019C1B2002393
:1012600052464046FFF78AFC601CC4B2AC42E6DB43
:1012700038E0002416E0681E011B0A20FFF737FE45
:10128000B7FBF0F00A21B0FBF1F201FB120000F114
:10129000300A3019C1B2002352464046FFF7B4FB72
:1012A000601CC4B2AC42E6DB1CE0FFE7002416E0A1
:1012B000681E011B0A20FFF71AFEB7FBF0F00A2197
:1012C000B0FBF1F201FB120000F1300A3019C1B29B
:1012D000002352464046FFF797FB601CC4B2AC4265
:1012E000E6DB00BF00BFBDE8F0872DE9F041054611
:1012F0000C4617461E46DDF81880012E06D0022E39
:1013000019D0032E2ED0042E5AD142E0092095FB8D
:10131000F0F100FB1150C5B2162094FBF0F100FB78
:101320001140C4B204B9012443463A462146284636
:10133000FFF73EFB61E0052095FBF0F100FB11504B
:10134000C5B2162094FBF0F100FB1140C4B205B900
:10135000012504B9012443463A4621462846FFF7B1
:1013600011FB4AE0052095FBF0F100FB1150C5B2DE
:10137000112094FBF0F100FB1140C4B205B9012526
:1013800004B9012443463A4621462846FFF726FB86
:1013900033E0072095FBF0F100FB1150C5B20B20A4
:1013A00094FBF0F100FB1140C4B205B9012504B96A
:1013B000012443463A4621462846FFF7CDFA1CE071
:1013C000072095FBF0F100FB1150C5B20B2094FBF8
:1013D000F0F100FB1140C4B205B9012504B90124A4
:1013E00043463A4621462846FFF7B6FA43463A4670
:1013F00021462846FFF7B0FA00BF00BFBDE8F081E4
:1014000010B50446FFF7E8FC7820FFF7BBFC00208E
:10141000FFF7B8FC2046FFF7B5FCFFF7F7FC10BD5F
:1014200010B50446FFF7D8FC7820FFF7ABFC40204E
:10143000FFF7A8FC2046FFF7A5FCFFF7E7FC10BD6F
:1014400000200CE0002106E00022064B03EBC01355
:101450005A544A1CD1B28029F6DB421CD0B208286B
:10146000F0DB7047081200202DE9F04304460D46DA
:1014700016461F46284638E0224631E0002A2DDB7A
:101480007F2A2BDC002829DB3F2827DC4FEAE07C81
:1014900000EB5C7C4FEAEC0CDFF8588008EBCC1CCE
:1014A0001CF802C003464FEAE07800EB58784FEA98
:1014B000E808A0EBC8094FF0010808FA09F82CEA7F
:1014C000080C01464FEAE07800EB58784FEAE8084C
:1014D000DFF8209009EBC81808F802C0511C0AB2C6
:1014E000A1199142CADC411C08B2E9198142C3DC4E
:1014F000BDE8F083081200202DE9F04F07460E46A4
:1015000091469A46C9F1010B00254C46321911B299
:101510007A1910B200F05CF9321B11B27A1B10B2CA
:1015200000F056F9721911B23A1910B200F050F9E0
:10153000721B11B23A1B10B200F04AF9BAF1000F57
:101540000FD060420FFA80F809E006EB080001B204
:10155000384600F03DF908F101000FFA80F8A04587
:10156000F3DB75E0681C05B2BBF1000F05DA68001B
:10157000401C58440FFA80FB07E0601E04B2281B91
:101580004000401C58440FFA80FB321911B27A19FE
:1015900010B200F01DF9721911B23A1910B200F030
:1015A00017F9321B11B27A1B10B200F011F9721B3D
:1015B00011B23A1B10B200F00BF9321B11B27A19BA
:1015C00010B200F005F9721B11B23A1910B200F016
:1015D000FFF8321911B27A1B10B200F0F9F8721943
:1015E00011B23A1B10B200F0F3F8BAF1000F2FD08D
:1015F00060420FFA80F811E006EB080211B27A1986
:1016000010B200F0E5F806EB080211B27A1B10B236
:1016100000F0DEF808F101000FFA80F8A045EBDBDE
:1016200068420FFA80F811E006EB080211B23A1B8B
:1016300010B200F0CDF806EB080211B23A1910B260
:1016400000F0C6F808F101000FFA80F8A845EBDBBE
:10165000A54287DBBDE8F08F2DE9FF4F86B0069EDF
:10166000079CDDF82080DDF8249000200190009098
:101670004C450FD1464502DDB2464646D04635467A
:1016800005E02146284600F0A3F8681C05B2454550
:10169000F7DD99E046450FD14C4502DDA2464C46A8
:1016A000D146274605E03946304600F091F8781CCF
:1016B00007B24F45F7DD87E0464505DDB2464646B1
:1016C000D046A2464C46D1464C4507DD604204B2A6
:1016D000C9F100000FFA80F901200190A9EB040084
:1016E000A8EB0601884207DDB24626465446C246AC
:1016F000C846D14601200090A8EB060000B2059034
:10170000A9EB04000FFA80FB4FEA4B0000B20390F4
:101710000598ABEB0000400000B202900598C0EBCA
:101720004B0000B2049035462746019838B1009826
:1017300028B1684201B2384600F04AF812E0019838
:1017400028B1784201B2284600F042F80AE0009839
:1017500020B12946384600F03BF803E039462846D8
:1017600000F036F82EE0681C05B20498002805DA6F
:10177000DDE90310084400B2049006E0781C07B2CB
:1017800002990498084400B20490019838B1009876
:1017900028B1684201B2384600F01AF812E0019808
:1017A00028B1784201B2284600F012F80AE0009809
:1017B00020B12946384600F00BF803E039462846A8
:1017C00000F006F84545CEDB0AB0BDE8F08F00001A
:1017D00070B50346002B20DB7F2B1EDC00291CDBB1
:1017E0003F291ADCCC1701EB5474E4100B4D05EBC8
:1017F000C414E45C0A46CD1701EB5575ED10A1EB5E
:10180000C5060125B5402C430846CD1701EB55759B
:10181000ED10024E06EBC515EC5470BD0812002009
:101820002DE9F04705460E4617469846DDF820A0FC
:10183000BAF1000F24D12C460CE031462046FFF7C8
:10184000C7FF06EB0800401E01B22046FFF7C0FFAD
:10185000601C04B2E819A042EFDC34460BE02146DC
:101860002846FFF7B5FFE919491E08B22146FFF7E0
:10187000AFFF601C04B206EB0800A042EFDC14E0EE
:101880002C460FE0B14607E049462046FFF7A0FF8F
:1018900009F101000FFA80F906EB08004845F3DC76
:1018A000601C04B2E819A042ECDCBDE8F08770B51A
:1018B0000546002411E080212141294009B1012180
:1018C00000E00021084600F095F9012000F086F9BB
:1018D000002000F083F9601CC4B2082CEBDB01206F
:1018E00000F07CF9002000F079F970BD10B50120FE
:1018F00000F080F9012000F071F9002000F07AF981
:10190000002000F06BF910BD10B5002000F072F956
:10191000012000F063F9012000F06CF910BD10B552
:101920000246012000E050430B1EA1F10101FAD153
:1019300010BD00002DE9F04304460D4616461F4633
:10194000284638E0224631E0002A2DDB7F2A2BDCB6
:10195000002829DB3F2827DC4FEAE07C00EB5C7C99
:101960004FEAEC0CDFF8588008EBCC1C1CF802C0E6
:1019700003464FEAE07800EB58784FEAE808A0EB1E
:10198000C8094FF0010808FA09F88CEA080C01466A
:101990004FEAE07800EB58784FEAE808DFF820904B
:1019A00009EBC81808F802C0511C0AB2A1199142EB
:1019B000CADC411C08B2E9198142C3DCBDE8F083EE
:1019C0000812002070B505460C4645F0B00000F046
:1019D0001DF9102141EA141000F018F904F00F006D
:1019E00000F014F970BD0000F8B506460F46144625
:1019F0001D46082D0CD1A4F120000E4901EB00106A
:101A00001023082239460090304600F017F80FE006
:101A1000062D0DD1A4F1200000EB4000064901EB9A
:101A200040000823062239460090304600F006F8B0
:101A3000F8BD000021DB000811E100082DE9FF4F8F
:101A400080460E469146DDF834B0002500244A4613
:101A500031464046039BFFF707FD00BF5EE00025CF
:101A600058E008EB0500002852DB08EB05007F2852
:101A70004EDC3046F11706EB5171C9100FB2F11769
:101A800006EB5171C910A6EBC10A002E05DA781ECB
:101A900007B20AF108000FFA80FA3819002817DB9C
:101AA0003819072814DC3819224901EBC01008EB5B
:101AB0000501405C04FB09511BF8011001FA0AF111
:101AC000084339191B4A02EBC11108EB050288547F
:101AD0003819401C00281BDB3819401C072817DC6C
:101AE0003819401C134901EBC01008EB0501405C9C
:101AF00004FB09511BF80110CAF108021141084307
:101B00003919491C0B4A02EBC11108EB0502885434
:101B1000681CC5B24D45A4DB601CC4B20399481EC5
:101B2000C11700EB5171012202EBE101A14296DCE9
:101B3000BDE8FF8F081200202DE9F04706468946D0
:101B400017461D46DDF82080002417E0281B411EA3
:101B50000A20FFF7E4FEB7FBF0F00A21B0FBF1F238
:101B600001FB120000F1300A04FB086108B2434691
:101B700052464946FFF738FF601CC4B2AC42E5DB71
:101B8000BDE8F0872DE9F0410646884615461F4618
:101B9000002409E02A5D04FB076108B23B46414688
:101BA000FFF722FF601CC4B2285D0028F2D1BDE817
:101BB000F081000010B500240BE000212046FFF763
:101BC00001FF054901EBC410802100F02FF8601CD3
:101BD000C4B2082CF1DB10BD0812002010B5044679
:101BE00022464FF48071024800F0F7FC10BD00005F
:101BF000000C014010B5044622464FF40071024823
:101C000000F0EBFC10BD0000000C014010B50446D4
:101C1000FFF76CFE7820FFF74AFE0020FFF747FE33
:101C20002046FFF744FEFFF76FFE10BD70B5054676
:101C30000E46FFF75BFE7820FFF739FE4020FFF7E6
:101C400036FE002404E0285DFFF731FE601CC4B2BC
:101C5000B442F8DBFFF758FE70BD00BFFEE700009E
:101C6000F0B503460C461746002B01DB0B2B01DDBC
:101C70000020F0BD002C01DB122C01DD0020F8E774
:101C8000C4F3C702E0B202F039F90546802040FAF9
:101C900005F667B103EB43000C490844805C304310
:101CA00003EB4301DFF824C0614488540CE0C6F123
:101CB000FF0003EB4301DFF814C06144895C084076
:101CC00003EB4301614488540020D2E71E3E00200C
:101CD00030B504462578164801681648006802F0B9
:101CE0001FF8207814490978884202DA2078401CCD
:101CF00000E000202070207806F03CF80F480078C3
:101D000000F0FEF820B90E48007800F023F908B181
:101D1000012000E0002028B12570207806F02AF884
:101D2000012030BD002002F09BF90020F9E70000FF
:101D3000181D0020141D00201F1D00202C1D002038
:101D40002D1D002010B504465748007800284ED1BC
:101D50005648007800283FD100F0B9FED8B1544869
:101D6000007810B9012002F07BF95148007818B1D1
:101D70004F480078142805D101204E490860022000
:101D80004A4908704A480078142804DA484800781C
:101D9000401C4749087000F08AFE40B34448007870
:101DA00010B9012002F05CF94148007818B14048B0
:101DB0000078142806D14FF0FF303E490860022019
:101DC0003A4908703A480078142810DA3848007800
:101DD000401C374908700AE034480078002803DDC9
:101DE00032480078401E00E000203049087000F0C2
:101DF0006EFE38B900F05BFE20B900202C49087057
:101E000001F0DAFF00F041FE40B12748007828B920
:101E10002948007810B90020284908702748007820
:101E2000012805D12046FFF753FF022023490870FF
:101E30002148007870B922480078401E2049087077
:101E40000846007830B901201E4908601E48007815
:101E50001B4908701D480078002805DD1B480078E4
:101E6000401E1A49087003E01748007817490870A7
:101E700000F014FEA0B10C48007828B900200D49EC
:101E8000086001200A49087001F096FF10480078A8
:101E900048B901200B49086000200C49087002E095
:101EA00000200B49087010BD2C1D0020101D0020C3
:101EB0000D1D0020301D00202D1D00201C1D0020A8
:101EC000111D0020341D0020081D00200F1D0020C2
:101ED0000E1D0020014605290ED2DFE801F00305A2
:101EE00007090B00002070470220FCE70520FAE7F5
:101EF0000820F8E70C20F6E70020F4E77047000020
:101F000070B5064600251AE0002414E004EB8400B6
:101F10000D490844405D01280BD10C4A1268A918EC
:101F20000B4A12682244901900F05CFB08B10120B2
:101F300070BD601CC4B2052CE8DB681CC5B2052D61
:101F4000E2DB0020F4E70000423E0020281D0020D4
:101F5000241D002070B5064600251AE0002414E078
:101F600004EB84000D490844405D01280BD10C4A64
:101F700012682A4491190B4A1268A01800F032FB2B
:101F800008B1012070BD601CC4B2052CE8DB681CE0
:101F9000C5B2052DE2DB0020F4E70000423E002040
:101FA000281D0020241D00202DE9F04106461224A2
:101FB000122510E0705D012807D12C46002C01DDB0
:101FC000601E00E00020C4B206E0002D01DD681EA6
:101FD00000E00020C5B2EDE700BF2FE00AE0305D71
:101FE000012806D1002C01DD601E00E00020C4B2F3
:101FF00000E000E0F3E700BF00270FE0002C04DD65
:102000002146384600F0EEFA00E0002080464246C5
:1020100029463846FFF724FE781CC7B20C2FEDDBAB
:10202000002D01DD681E00E00020C5B2002C01DD9E
:10203000601E00E00020C4B205B900E0CEE700BF9A
:10204000BDE8F08110B5044674B94FF480413E48B4
:1020500000F0C1FA4FF400413B4800F0BCFA4FF4E5
:1020600080713A4800F0B7FA012C0BD1A103364831
:1020700000F0AFFAE103344800F0ADFA2102334832
:1020800000F0A9FA022C0BD161032F4800F0A3FA4B
:10209000A1032D4800F09DFAE1012C4800F09BFAC5
:1020A000032C0ED14FF48041274800F092FA4FF4F0
:1020B0000041254800F08DFA4FF48071234800F06C
:1020C0008AFA042C0BD121031F4800F084FA610323
:1020D0001D4800F080FAA1011C4800F07AFA052C96
:1020E0000ED14FF48041184800F073FA4FF40041CC
:1020F000154800F070FA4FF48071144800F069FA46
:10210000062C0ED14FF480410F4800F064FA4FF4D2
:1021100000410D4800F05DFA4FF480710B4800F06B
:1021200058FA072C0ED14FF48041074800F051FABD
:102130004FF40041044800F04CFA4FF4807103481A
:1021400000F047FA10BD0000000C014000080140FB
:102150001CB50121042001F04FFE0121082001F0EF
:102160004BFE10208DF807004FF44040ADF80400FE
:1021700003208DF8060001A9084800F05FF910203F
:102180008DF803000001ADF8000003208DF8020077
:102190006946034800F052F91CBD0000000C0140E4
:1021A00000080140144800686421B0FBF1F01349B5
:1021B00088700846807800EBC00101EB00100E49E2
:1021C0000968A1EB80000A21B0FBF1F00B494870CF
:1021D0000846807800EBC00101EB00100649097841
:1021E000A1EB80000549497801EB8101A0EB41009A
:1021F0000249087070470000041D0020091D0020DE
:102200002DE9F04186B04FF00008142101A8FEF737
:102210004EFA0026002413E00127002507E021469E
:10222000284600F0DFF900B90027681CC5B20C2D64
:10223000F5DB1FB1012001A908558046601CC4B21E
:10224000132CE9DBB8F1010F05D101A800F0B9F8B2
:1022500001A8FFF7A9FE002407E001A8005D0128FE
:1022600001D1701CC6B2601CC4B2132CF5DB084847
:1022700000683044064908603046FFF72BFE0549E8
:10228000096808440349086006B0BDE8F081000011
:10229000041D0020001D0020704700002DE9FC41B6
:1022A00006460F464FF000080024002500BF23E03B
:1022B00000251DE005EB850012490844005D01285A
:1022C00014D11148002104EB4402104BCDE9001059
:1022D0001B681A44511F05EB45020D4B1B68D018B3
:1022E0003B46324602F06AFA40EA0808681CC5B26A
:1022F000052DDFDB601CC4B2052CD9DB4046BDE8F0
:10230000FC810000423E0020E1E30008181D00208F
:10231000141D002070B500201A490870002517E030
:10232000002411E004EB840017490844405D0128B3
:1023300008D1164A12685119154A1268101901225B
:10234000FFF78EFC601CC4B2052CEBDB681CC5B229
:10235000052DE5DB0D480068092803DA0D48006803
:10236000801C02E00B480068401C0A4908600020FD
:102370000949086009490860FFF742FFFFF712FFAB
:1023800070BD0000201D0020423E0020281D0020BE
:10239000241D0020001D0020181D0020141D0020F9
:1023A00010B5002400BF08E00121204600F01AF912
:1023B000012800D110BD601CC4B20C2CF4DB00203D
:1023C000F8E770B5044600250FE02146012001F032
:1023D000DBFC522002F0B3F82146002001F0D4FCCF
:1023E000522002F0ACF8681CC5B2052DEDDB0520CB
:1023F00001F036FE70BD2DE9F0410646002419E0DB
:102400002146002001F05EFC01F07CFC00250BE081
:1024100032462146284603F0CDFE074600F002FA78
:1024200000F0F0F9681CC5B2802DF1DB00F0D6F9A0
:10243000601CC4B2082CE3DBBDE8F0812DE9F0415B
:10244000024600250026002000230024002791F8E2
:1024500003C00CF00F0591F803C00CF0100CBCF198
:10246000000F03D091F802C04CEA050591F800C0B6
:10247000BCF1000F31D0146800202BE04FF0010CAC
:102480000CFA00F3B1F800C00CEA03069E4220D11A
:1024900083004FF00F0C0CFA03F7BC4305FA03FC62
:1024A0004CEA040491F803C0BCF1280F06D14FF0A8
:1024B000010C0CFA00FCC2F814C00AE091F803C049
:1024C000BCF1480F05D14FF0010C0CFA00FCC2F82A
:1024D00010C0401C0828D1D31460B1F800C0BCF172
:1024E000FF0F34DD546800202EE000F1080C4FF09F
:1024F000010808FA0CF3B1F800C00CEA03069E428A
:1025000021D183004FF00F0C0CFA03F7BC4305FAFE
:1025100003FC4CEA040491F803C0BCF1280F05D178
:1025200000F1080C08FA0CF8C2F8148091F803C006
:10253000BCF1480F07D100F1080C4FF0010808FA70
:102540000CF8C2F81080401C0828CED35460BDE8B7
:10255000F08100000EB50121082001F04DFC0121A1
:10256000042001F049FC48208DF80B000320ADF851
:1025700008008DF80A0002A90F48FFF75FFF482006
:102580008DF80700FF20ADF8040003208DF8060049
:1025900001A90A48FFF752FF48208DF803004FF4C5
:1025A0004050ADF8000003208DF802006946024853
:1025B000FFF744FF0EBD0000000C01400008014081
:1025C0000246002093680B400BB1012000E0002080
:1025D000704741617047016170470AB1016100E0D5
:1025E0004161704770B503460A46002A01DA0020AF
:1025F00070BD002B01DB0B2B01DD0120F8E7122A57
:1026000001DD0120F4E7C2F3C705D0B201F076FC8A
:102610000446802040FA04F603EB430004490844D2
:10262000405D304008B90020E2E70120E0E700000B
:102630001E3E002018B50F4800681421B0FBF1F0D1
:10264000C4B20D480078A04204D00B4804700220A8
:1026500001F006FD0848007815280ADA01200B234E
:102660001422002100900448007803F077FE03490B
:10267000087018BD041D0020FC1C0020081D00204F
:1026800010B5002401212548FFF79AFF00B907245F
:1026900020212348FFF794FF00B908244021204857
:1026A000FFF78EFF00B9092402211C48FFF788FFBD
:1026B00000B90A2480211A48FFF782FF00B90624D6
:1026C00008211748FFF77CFF00B9022401211448B4
:1026D000FFF776FF00B9032402211148FFF770FFCE
:1026E00000B9042410210E48FFF76AFF00B9052441
:1026F00004210B48FFF764FF00B901244FF4805117
:102700000648FFF75DFF00B90B244FF40051034862
:10271000FFF756FF00B90C24204610BD000C014005
:10272000000801400146A1F12E00014A105C7047EB
:102730008EE300081CB50121042001F05DFB01219E
:10274000082001F059FB10208DF807004FF440409D
:10275000ADF8040003208DF8060001A91048FFF72A
:102760006DFE10208DF803000001ADF8000003207D
:102770008DF8020069460B48FFF760FE0FE04FF44A
:1027800080410748FFF727FF642002F035F94FF436
:1027900080410348FFF71DFF642002F02DF9EEE7AA
:1027A000000C01400008014010B5012211020A4846
:1027B000FFF713FF012251020748FFF70EFF002227
:1027C0004FF400710448FFF708FF00224FF48071B6
:1027D0000148FFF702FF10BD000C014010B50122B7
:1027E00011020748FFF7F9FE00224FF40071044878
:1027F000FFF7F3FE012251020148FFF7EEFE10BD84
:10280000000C014010B5012211020548FFF7E5FE5A
:1028100000224FF480710248FFF7DFFE10BD000078
:10282000000C01402DE9F04105462C4600224FF4F2
:1028300080711448FFF7D1FE00261FE0274607F0FD
:102840008007802F05D1012251020E48FFF7C5FEF7
:1028500005E000224FF400710A48FFF7BEFE600653
:10286000040E012211020748FFF7B7FE00224FF4C1
:1028700080710448FFF7B1FE701CC6B2082EDDDB84
:10288000BDE8F081000C014010B50446FFF78CFF55
:102890007820FFF7C7FFFFF7B5FF0020FFF7C2FF63
:1028A000FFF7B0FF2046FFF7BDFFFFF7ABFFFFF7D5
:1028B00095FF10BD10B50446FFF776FF7820FFF7AF
:1028C000B1FFFFF79FFF4020FFF7ACFFFFF79AFF34
:1028D0002046FFF7A7FFFFF795FFFFF77FFF10BD2B
:1028E00010B50020002100BF0DE0002107E000220C
:1028F00001EB4103224C23441A544A1CD1B20C2947
:10290000F5DB421CD0B20328EFDB00200DE00021F4
:1029100007E0002201EB81031A4C23441A544A1C9D
:10292000D1B20529F5DB421CD0B20528EFDB00222D
:10293000154B1A70154B1A70154B1A70154B1A70EF
:102940000122154B1A700022144B1A60144B1A60A6
:10295000144B1A70144B1A70144B1A70144B1A70D3
:10296000144B1A70144B1A60144B1A60144B1A70E3
:10297000144B1A70144B1A60144B1A6010BD0000EF
:102980001E3E0020423E00200D1D00200E1D002096
:102990000F1D0020101D0020111D0020141D0020FF
:1029A000181D00201C1D00201D1D00201E1D0020C4
:1029B0001F1D0020201D0020241D0020281D002098
:1029C0002C1D00202D1D0020301D0020341D002056
:1029D00008B50020009004F0C5FFFFF7E3FB684650
:1029E000FFF709FD36E001F0E7F91D49087000F036
:1029F00043F810B105F0A4F92DE0212000F036F8DD
:102A00009DF80000072803DA9DF80000401C00E054
:102A10000020C0B200906846FFF7EDFC03F0A1F97A
:102A20000B280BD10F48006805F0CEFD0E4800685A
:102A300005F09CFE6846FFF7DEFC0BE003F091F921
:102A40000C2807D10748006805F0BEFD064800685D
:102A500005F042FCC7E700BF042001F001FB08BD00
:102A60001D1D0020040000201800002010B50446A1
:102A7000204605F0F7FB10BD10B5FFF701FE0A2850
:102A800001D1012010BD0020FCE710B5FFF7F8FDD3
:102A90000A2801D1002010BD0120FCE710B5FFF786
:102AA000EFFD072801D1012010BD0020FCE710B583
:102AB000FFF7E6FD082808D1052005F0D3FBFFF756
:102AC000DFFD082801D1012010BD0020FCE710B572
:102AD000FFF7D6FD092808D1052005F0C3FBFFF755
:102AE000CFFD092801D1012010BD0020FCE7000026
:102AF000024908780021014A11707047380000200F
:102B000010B5FFF727FD01F0DBFC10BD10B5404804
:102B1000007840490870FFF7B3FD3D4908703D4813
:102B20000078062805D10846007810B906203A49F1
:102B3000087038480078072805D13548007810B962
:102B400007203549087033480078082805D13048F7
:102B5000007810B90820304908702E4800780928FC
:102B600005D12B48007810B909202B490870294855
:102B700000780A2805D12648007810B90A2026498D
:102B8000087024480078012805D12148007810B940
:102B90000120214908701F480078022805D11C48EF
:102BA000007810B902201C4908701A4800780328E0
:102BB00005D11748007810B9032017490870154847
:102BC0000078042805D11248007810B90420124971
:102BD000087010480078052805D10D48007810B914
:102BE00005200D4908700B4800780B2805D10848CE
:102BF000007810B90B2008490870064800780C28A6
:102C000005D10348007810B90C200349087010BDA5
:102C10003A00002039000020380000202DE9F04162
:102C20004FF4247514488688012420E004EB440105
:102C3000114A32F8111001EB4101104A02EB410137
:102C400004EB44020C4B03EB4202528831F81200B1
:102C500003F0BEFE04EB4400074901EB400080880E
:102C600096FBF0F7384605F0FDFA601C84B2AC42E2
:102C7000DCDDBDE8F0810000560100203C000020B2
:102C800000BFFEE708B5FFF733FFFA4908700846B2
:102C90000078082804D10020F7490870F749087027
:102CA000F748007830B9FDF7ADFFF5480078401CD3
:102CB000F3490870F348007800287DD1ED4800788A
:102CC00007280FD1F0480078401CEF4908700846EB
:102CD0000078062190FBF1F201FB1200EA4908702E
:102CE000FDF790FFE3480078062815D1E648007804
:102CF000401EE549087008460078052801DD0520DA
:102D00000870E1480078062190FBF1F201FB120007
:102D1000DD490870FDF776FF00231A4604210120E3
:102D2000FEF71AF90023012205211046FEF714F9D7
:102D3000D6480078C8B1D6480068401CD44908601D
:102D40000846006864280ADD00200860FDF796FA4E
:102D5000062190FBF1F201FB1200CE490860CD483C
:102D60000068401CFFF76EF902E00020FFF76AF9E7
:102D7000C548007806287DD2DFE800F0038DF5F421
:102D8000F3F2C1480078002862D101200323C2A2D7
:102D9000014600900220FEF7A8FA0123002202213A
:102DA0000846FEF7BDF901231A4603210220FEF76B
:102DB000B7F90123022200E042E304211046FEF7A6
:102DC000AFF90123032205210220FEF7A9F9002013
:102DD0000323B2A2012100901846FEF786FA0023D1
:102DE000042202210320FEF79BF900230522032180
:102DF0000846FEF795F90023062204210320FEF77A
:102E00008FF90023072205210320FEF789F900200E
:102E10000323A3A2012100900420FEF766FA0023F9
:102E2000082202210420FEF77BF900230922032156
:102E30000420FEF775F900230A2204210846FEF754
:102E40006FF900230B2205210420FEF769F921E028
:102E50000020032390A2012100900220FEF745FAF2
:102E600000231A4602210846FEF75AF900230122E0
:102E7000032100E062E20220FEF752F90023022261
:102E800004211046FEF74CF90023032205210220FD
:102E9000FEF746F9D3E27C480078012864D100208F
:102EA00003237DA2012100900220FEF71EFA0023D9
:102EB0001A4602210846FEF733F9002301220321B6
:102EC0000220FEF72DF90023022204211046FEF70E
:102ED00027F90023032205210220FEF721F9012012
:102EE00003236EA2014600901846FEF7FEF9012367
:102EF000042202210320FEF713F9012305220321F6
:102F00000846FEF70DF90123062204210320FEF7EF
:102F100007F90123072205210320FEF701F900200C
:102F200003235FA2012100900420FEF7DEF90023B5
:102F3000082202210420FEF7F3F8002309220321CE
:102F40000420FEF7EDF800230A2204210846FEF7CC
:102F5000E7F800230B2205210420FEF7E1F823E027
:102F6000EDE154E1C1E020E0002003234BA2012168
:102F700000901846FEF7B9F900230422022103202D
:102F8000FEF7CEF80023052203210846FEF7C8F815
:102F90000023062204210320FEF7C2F800230722A3
:102FA00005210320FEF7BCF849E2374800780228E3
:102FB00079D10020032338A2012100900220FEF7DE
:102FC00094F900231A4602210846FEF7A9F80023C7
:102FD000012203210220FEF7A3F80023022204218C
:102FE0001046FEF79DF80023032205210220FEF77C
:102FF00097F80020032329A2012100901846FEF72C
:1030000074F90023042202210320FEF789F800232B
:10301000052203210846FEF783F800230622042137
:103020000320FEF77DF80023072205210320FEF789
:1030300077F8012003231AA2014600900420FEF72E
:1030400054F90123082202210420FEF769F8012324
:10305000092203210420FEF763F801230A22042138
:103060000846FEF75DF801230B2205210420FEF738
:1030700057F839E069110020601100205F1100202D
:10308000611100205C1100205B11002068110020FC
:103090007411002078110020312E0000322E000023
:1030A000332E0000FFE700200323AFF20C020121C2
:1030B00000900420FEF719F90023082202210420C1
:1030C000FEF72EF80023092203210420FEF728F83A
:1030D00000230A2204210846FEF722F800230B22CF
:1030E00005210420FEF71CF8A9E1F8480078032820
:1030F00066D101200323F6A2014600900220FEF7CC
:10310000F4F801230C2202210846FEF709F80123F6
:103110000D2203210220FEF703F801230E220421D1
:103120000220FDF7FDFF01230F2205210220FDF7FC
:10313000F7FF0123102206210220FDF7F1FF0020F6
:103140000323E4A2012100901846FEF7CEF80023E5
:10315000112202210320FDF7E3FF002312220321A5
:103160000846FDF7DDFF0023132204210320FDF7AD
:10317000D7FF0023142205210320FDF7D1FF0023F0
:10318000152206210320FDF7CBFF0023162207217D
:103190000320FDF7C5FF00200323CFA201210090EB
:1031A0000420FEF7A2F80023172202210420FDF7D5
:1031B000B7FF0023182203210420FDF7B1FF25E00B
:1031C00000200323C2A2012100900220FEF78DF807
:1031D00000230C2202210846FDF7A2FF00230D2246
:1031E00003210220FDF79CFF00230E220221084646
:1031F000FDF796FF01230F2203210220FDF790FF28
:103200000023102203210220FDF78AFF17E1AF48B7
:103210000078042866D100200323ADA2012100908C
:103220000220FEF762F800230C2202210846FDF777
:1032300077FF00230D2203210220FDF771FF0023F9
:103240000E2204210220FDF76BFF00230F2205212F
:103250000220FDF765FF0023102206210220FDF762
:103260005FFF012003239BA2014600901846FEF752
:103270003CF80123112202210320FDF751FF012315
:10328000122203210846FDF74BFF012313220421DC
:103290000320FDF745FF0123142205210320FDF73C
:1032A0003FFF0123152206210320FDF739FF0123EB
:1032B000162207210320FDF733FF0020032386A2F7
:1032C000012100900420FEF710F8002317220221AC
:1032D0000420FDF725FF0023182203210420FDF719
:1032E0001FFF2BE0002003237AA201210090184643
:1032F000FDF7FBFF0023112202210320FDF710FF41
:103300000023122203210846FDF70AFF002313229F
:1033100004210320FDF704FF0023142205210320CC
:10332000FDF7FEFE0023152206210320FDF7F8FE1F
:103330000023162207210320FDF7F2FE7FE06348F9
:103340000078052866D10020032361A201210090A6
:103350000220FDF7CAFF00230C2202210846FDF7D8
:10336000DFFE00230D2203210220FDF7D9FE0023FA
:103370000E2204210220FDF7D3FE00230F22052197
:103380000220FDF7CDFE0023102206210220FDF7CA
:10339000C7FE002003234FA2012100901846FDF72D
:1033A000A4FF0023112202210320FDF7B9FE002310
:1033B000122203210846FDF7B3FE00231322042145
:1033C0000320FDF7ADFE0023142205210320FDF7A5
:1033D000A7FE0023152206210320FDF7A1FE0023EE
:1033E000162207210320FDF79BFE012003233AA2AA
:1033F000014600900420FDF778FF012317220221E7
:103400000420FDF78DFE0123182203210420FDF77F
:1034100087FE13E0002003232FA201210090042047
:10342000FDF763FF0023172202210420FDF778FE39
:103430000023182203210420FDF772FE00BF00BF05
:10344000264800780A282BD12548007830B924482E
:103450000078401C22490870FDF7D4FB1B48007817
:1034600006281CD2DFE800F003070B0F131701201A
:103470001C49087013E002201A4908700FE003206D
:10348000184908700BE004201649087007E0052071
:103490001449087003E006201249087000BF00BFFD
:1034A0001048007808283DD2DFE800F03C040A20EC
:1034B000262C323800F03CF801200B49087032E02D
:1034C00000F09AF80120084908702CE05B110020F8
:1034D000342E0000352E0000362E00006911002029
:1034E00062110020641100205C11002000F0F8F847
:1034F00001200E49087016E000F062F901200B4926
:10350000087010E000F0F2F90120084908700AE0A4
:1035100000F064FA01200549087004E00020034926
:10352000087000E000BF00BF08BD00005C11002073
:1035300008B500231A4601210846FDF7F1FD0023D6
:10354000012202211046FDF7EBFD00230222032198
:103550000120FDF7E5FD0023032204210120FDF7F2
:10356000DFFD1F48007840B9002003231DA207217A
:1035700000901846FDF7B9FE07E0002003231AA2C9
:10358000072100901846FDF7B0FE1848007807287C
:103590000CD113480078401C11490870087800EBE2
:1035A000D0714910A0EB41010D4A11700F4800780D
:1035B0000A2803D00D480078082810D10C4800785C
:1035C000401C0B49087008460078012805DD0720DB
:1035D00008490870002006490870FDF713FB08BD74
:1035E000681100204F4646004F4E20006911002010
:1035F000651100206411002008B500230422012178
:103600000846FDF78DFD0023052202210120FDF76C
:1036100087FD0023062203210120FDF781FD002301
:10362000072204210120FDF77BFD032001230090E8
:103630002648027808210320FDF7B2FD24480078CF
:10364000062813D121480078401C204908700846FC
:1036500000780A2190FBF1F201FB12001B4908706F
:103660000846007800EB40001A49087018480078B6
:10367000072811D11548007818B909201349087096
:1036800004E012480078401E104908700F48007886
:1036900000EB40000F4908700D4800780A2803D05D
:1036A0000B480078082810D10B480078401C0A49C4
:1036B000087008460078012805DD072007490870D2
:1036C000002005490870FDF79DFA08BD6E11002025
:1036D0006911002063110020651100206411002091
:1036E00008B50023082201210846FDF719FD002333
:1036F000092202210120FDF713FD00230A220321E4
:103700000120FDF70DFD00230B2204210120FDF710
:1037100007FD03200123009024480278082103209C
:10372000FDF73EFD22480078062810D11F4800789A
:10373000401C1E49087008460078092801D1012064
:1037400008701A4800788006000E1A490870184858
:103750000078072810D115480078401E13490870DA
:1037600008460078012801DC092008700F4800781D
:103770008006000E0F4908700D4800780A2803D013
:103780000B480078082810D10B480078401C0A49E3
:10379000087008460078012805DD072007490870F1
:1037A000002005490870FDF72DFA08BD70110020B2
:1037B00069110020661100206511002064110020AD
:1037C0001CB500230C2201210846FDF7A9FC0023AB
:1037D0000D2202210120FDF7A3FC00230E2203216C
:1037E0000120FDF79DFC00230F2204210120FDF79D
:1037F00097FC0023102205210120FDF791FC2F48A2
:10380000007840B9002003232DA20721009018461C
:10381000FDF76BFD07E0002003232AA2072100909B
:103820001846FDF762FD2948007807280CD1234887
:103830000078401C21490870087800EBD0714910CD
:10384000A0EB41011D4A1170204800780A2803D0DE
:103850001E480078082830D11D480078401C1C49BB
:10386000087008460078012805DD0720194908700E
:103870000020174908701148007880B91648006880
:10388000C8B91548022100233222CDE9001013A146
:10389000154805F0E1FB322003F090F80BE00E48EC
:1038A000006840B10C48006804F016FD00200A4989
:1038B000086003F083F8FDF7A5F91CBD671100202F
:1038C0004F4E20004F4646200000000069110020A6
:1038D0006511002064110020080000206D757369D7
:1038E00063305F7461736B001969000808B50023C9
:1038F000112201210846FDF713FC002312220221A8
:103900000120FDF70DFC0023132203210120FDF708
:1039100007FC0023142204210120FDF701FC0023F1
:10392000152205210120FDF7FBFB002316220621AD
:103930000120FDF7F5FB2248007840B90020032361
:1039400020A2072100901846FDF7CFFC0CE00020D4
:1039500003231DA2072100901846FDF7C6FC1B4853
:103960000078C043194908701948007807280CD11D
:1039700013480078401C12490870087800EBD07199
:103980004910A0EB41010E4A1170114800780A2835
:1039900003D00F480078082810D10E480078401C4A
:1039A0000C49087008460078012805DD07200A49FF
:1039B0000870002007490870FDF724F908BD0000D1
:1039C000671100204F4E20004F4646007111002025
:1039D00069110020651100206411002008B5002342
:1039E000172201210846FDF79BFB00231822022124
:1039F0000120FDF795FB0320012300901E4802786B
:103A000008210320FDF7CCFB1C48007806280AD1CA
:103A100019480078401C18490870084600780428A6
:103A200001D1002008701548007807280AD11248F3
:103A30000078401E1049087008460078032801DD10
:103A4000032008700D4800780A2803D00B4800783E
:103A5000082810D10A480078401C09490870084617
:103A60000078012805DD0720064908700020044978
:103A70000870FDF7C7F808BD6F110020691100201C
:103A8000651100206411002010B5334801683348E7
:103A9000006800F045F93248007838B931480068CC
:103AA000FEF72EFA10B100202E4908602D4800685C
:103AB000012804D129480068401C28490860294889
:103AC0000068401C20B925480068401E2349086052
:103AD000214801682148006800F022F92048007858
:103AE00010B900201F4908601F480068FEF732FA2D
:103AF00068B100201C4908601C4908701C49087006
:103B000006201C490870522000F019FD02E0002038
:103B1000184908701848007888B913480068401C94
:103B200020B90D480068401E0B4908600E48006827
:103B3000012804D108480068401C0749086006486D
:103B400001680648006800F0EBF80C48007810B9EE
:103B500000200549086010BD181D0020141D00201C
:103B60002C1D0020301D0020341D00200D1D0020C4
:103B70001C1D0020201D00200F1D00202D1D0020D9
:103B80002DE9FC4706460F4600240025592E4FDD3F
:103B9000A046A146A24627480078072818D2DFE8A9
:103BA00000F004080B0E0F1316004FF00109CA466F
:103BB0000FE04FF0FF0A0CE04FF0010909E008E0C8
:103BC0004FF00109CA4604E04FF0010901E000E0AE
:103BD00000BF00BF002426E0002520E01548007843
:103BE00000EB80000119284600F03CFA012814D1AE
:103BF000114800211B2202EB4402521FCDE90010A4
:103C000002EB0A015C2202EB450202EB09003B4693
:103C1000324600F0D3FD40EA0808681CC5B2052D05
:103C2000DCDB601CC4B2052CD6DB4046BDE8FC875B
:103C30000020FBE71E1D0020D8E3000870470000AD
:103C400070B5002100230F22C47804B3154C2468FA
:103C500004F4E064C4F5E064210AC1F10403CA403D
:103C6000447804FA03F184781440214309010E4C8E
:103C70000678A155047804F01F050124AC400578AE
:103C80006D11AD0005F1E025C5F8004109E00478AB
:103C900004F01F050124AC40044D0678761145F868
:103CA000264070BD0CED00E000E400E080E100E0A3
:103CB00002490143024A1160704700000000FA0502
:103CC0000CED00E070B504460D4605F1B000002192
:103CD00000F00CF8102141EA1410002100F006F861
:103CE00004F00F00002100F001F870BD70B504462B
:103CF0000D461DB1E0B2FEF7DDFD02E0E0B2FEF7D9
:103D0000C3FD70BD10B5FEF74FFD7820FEF78AFDAC
:103D1000FEF778FD4020FEF785FDFEF773FD10BD30
:103D200030B5A0F125020B1D032492FBF4F4E41E30
:103D3000114D2C60032492FBF4F504FB15241CB1F7
:103D400001240E4D2C7002E000240C4D2C70032435
:103D500093FBF4F4E41E0A4D2C602C462468E41C0A
:103D600004EB44049C4203D00124064D2C7002E075
:103D70000024044D2C7030BD241D00202C1D00207B
:103D8000281D00202D1D0020F0B506460F460024FA
:103D90000FE0385D01280AD1002506E032462146B1
:103DA0002846FDF75DFF681CC5B20C2DF6DB601CD4
:103DB000C4B2132CEDDBF0BD06480078062803DA08
:103DC00004480078401C00E00020024908700846C2
:103DD000007870470C1D002029B1064AD2690243C1
:103DE000044BDA6104E0034AD2698243014BDA6191
:103DF000704700000010024029B1064A9269024350
:103E0000044B9A6104E0034A92698243014B9A6130
:103E1000704700000010024030B50021002200244D
:103E200000232D4D6D6805F00C0121B1042905D04A
:103E3000082923D105E0294D056022E0274D0560C2
:103E40001FE0254D6D6805F47012234D6D6805F473
:103E50008034022505EB92421CB9214D5543056083
:103E60000BE01D4D6D6805F400351DB11C4D55432B
:103E7000056002E0194D5543056002E0174D0560ED
:103E800000BF00BF144D6D6805F0F0010909154D24
:103E90006B5C0568DD4045600F4D6D6805F4E061C1
:103EA000090A104D6B5C4568DD4085600A4D6D6800
:103EB00005F46051C90A0B4D6B5C4568DD40C56077
:103EC000054D6D6805F44041890B074D6B5CC56875
:103ED000B5FBF3F5056130BD0010024000127A0019
:103EE00000093D00C6100020D6100020024602EB5B
:103EF000C110014B185C704770E500080146C810FE
:103F0000A1EBC000C0B270470146C8107047000066
:103F1000FCB504460D4616463078032816DD0C48DD
:103F200000212B462246CDE900101C21312000F053
:103F300045FC0746074800212B462246CDE90010E4
:103F40002421312000F03AFC3843FCBD0020FCE77E
:103F500010E4000830E400082DE9FC4304460D4657
:103F60000027B8462B4810F815603FE02D2C06DDE1
:103F7000522C04DA2046FEF7D5FB80461EE0294687
:103F80002046FFF7B3FF814629462046FFF7F8FD9C
:103F900049EA00092946204603F01EFD49EA0009C6
:103FA0002946204603F050FD49EA000929462046EB
:103FB00003F0DCFC49EA0000BDE8FC8331464046E2
:103FC000FEF710FB01280FD11348002106EB460233
:103FD000CDE90010511D08EB480202F12E002B46DE
:103FE000224600F0EBFB0743701CC6B2012000EB39
:103FF00045000849085CB042B8DC29462046FFF776
:1040000075FF40EA070929462046FEF747F949EAC5
:104010000000D1E7EC1C0020DCE30008002003498D
:10402000087003490860034908607047FC1C0020C1
:10403000041D0020001D002010B50446FFF7BCFE43
:10404000054908700548007800F01CF80020207031
:10405000207803F08FFE10BD1E1D00201D1D0020C6
:104060007047000010B5024680201041044C645C8B
:1040700000EA04030BB1012010BD0020FCE70000A2
:10408000B5E3000811490870072818D2DFE800F0EE
:1040900004080C0D0E12130003210D4A117012E0DA
:1040A00000210B4A11700EE000BF00BF0121084A39
:1040B000117008E000BF0321054A117003E00021E0
:1040C000034A117000BF00BF704700001D1D002093
:1040D0001F1D002010B500F001F810BD0CB5002028
:1040E000019000903348006840F480303149086006
:1040F00000BF3048006800F4003000900198401C78
:104100000190009818B90198B0F5A06FF1D1294835
:10411000006800F4003010B10120009001E00020A0
:1041200000900098012843D12348006840F0100017
:10413000214908600846006820F00300086008462E
:10414000006840F0020008601A4840681949486059
:104150000846406848600846406840F4806048600F
:104160000846406820F47C1048600846406840F4E7
:10417000E81048600846006840F08070086000BFA2
:104180000C48006800F000700028F9D00948406829
:1041900020F00300074948600846406840F00200EC
:1041A000486000BF0348406800F00C000828F9D1BF
:1041B0000CBD0000001002400020024008B50020A5
:1041C000012316A20E2100901846FDF78EF800205C
:1041D000012313A2014600901846FDF786F8114806
:1041E0000088401C0F4908800F4801780720FCF721
:1041F0004DFFFCF7F1FE01200523009009480288DD
:1042000011210120FCF7CCFF012005230090074875
:10421000028804210120FCF7C3FF08BD53433A0084
:1042200048533A00541100206B1100205211002015
:1042300010B503461AB101FA03F0C0B210BDC3F1C4
:10424000080441FA04F0F9E7042808D14FF0E0210E
:10425000096941F004014FF0E022116107E04FF0DD
:10426000E021096921F004014FF0E022116170475B
:1042700010B504F021FF012801D004F0A3FB10BD0C
:1042800010B51348006840F0010011490860084665
:104290004068104908400E494860084600680E49C9
:1042A00008400B4908600846006820F48020086038
:1042B0000846406820F4FE0048604FF41F00886004
:1042C000FFF708FF4FF000600449086010BD0000D0
:1042D000001002400000FFF8FFFFF6FE08ED00E0CE
:1042E00010B50121880700F02AF8012805D1FEF752
:1042F0000DFC0121880700F004F810BDCA430282BA
:104300007047CA430282704721B1028842F001021D
:10431000028004E002884FF6FE731A400280704764
:1043200031B1B0F8442042F40042A0F8442005E046
:10433000B0F84420C2F30E02A0F84420704730B514
:104340000246002000230024158A05EA010395890E
:1043500005EA010413B10CB1012000E0002030BDDA
:104360001AB183890B43838102E083898B43838164
:10437000704701894FF6F8721140018170470000C3
:1043800070B5002200230024058C4EF6FF763540E0
:104390000584038C8488828B48F6FF752A404FF68B
:1043A000FF452A400D884FF6FF7606EA05252A4389
:1043B0004DF6FF752B400D8906EA05352B434D88D8
:1043C00006EA05352B430B4DA84202D00A4DA84200
:1043D00008D14BF6FF752C408D894FF6FF7606EA23
:1043E00085152C4384808283CD88A0F840500384B7
:1043F00070BD0000002C014000340140002101800C
:1044000041808180C180018141818181C18170476A
:10441000018582827047A0F8401070470022028810
:104420001D4B98420ED01D4B98420BD0B0F1804FDF
:1044300008D01B4B984205D01A4B984202D01A4B19
:10444000984204D14FF68F731A404B881A43174B8A
:10445000984207D0164B984204D04FF6FF431A40BB
:10446000CB881A4302808B8883850B8803850A4B8F
:1044700098420BD0094B984208D00E4B984205D079
:104480000D4B984202D00D4B984201D10B7A038616
:104490000123838270470000002C0140003401405A
:1044A0000004004000080040000C004000100040E4
:1044B0000014004000400140004401400048014019
:1044C0001FB501210846FFF787FC4FF08040FFF73A
:1044D00050FF0020ADF80A00ADF8060040F22B10A6
:1044E000ADF8080041F61F40ADF8040000208DF83B
:1044F0000C0001A94FF08040FFF790FF01218807D1
:10450000FFF7FCFE012211469007FFF729FF4FF449
:10451000A060FFF7CDFB1C208DF8000001208DF876
:10452000030002208DF8010001208DF8020068468A
:10453000FFF786FB01218807FFF7E6FE1FBD2DE987
:10454000F0410646002418E021460020FFF7BAFBA0
:10455000FFF7D8FB00250AE021462846FFF7FCFCC0
:104560000746FEF75FF9FEF74DF9681CC5B2B54284
:10457000F2DBFEF733F9601CC4B2082CE4DBBDE8C3
:10458000F081000010B540F225511D4800F04AF8B6
:1045900010B31B4800F002F9C4B21A48008800F4B6
:1045A0000040C8B91748008800F4804060B10A2C68
:1045B00003D000201349088020E01248008840F40E
:1045C00000401049088019E00D2C06D10D480088E4
:1045D00040F480400B49088010E00A480088C0F38E
:1045E0000D0009490C5407480088401C0549088003
:1045F00008460088C72801DD0020088010BD0000A3
:1046000000380140C4100020EC1D002021B1828937
:1046100042F40052828104E082894DF6FF731A4011
:104620008281704770B502460024002300250020D7
:1046300040F66A16B14200D100BFC1F3421501F045
:104640001F03012606FA03F3012D02D19689334098
:1046500006E0022D02D1168A334001E0968A3340EB
:104660000C12012606FA04F41688344013B10CB17A
:10467000012000E0002070BDF0B5034600240026B4
:104680000025002040F66A17B94200D100BF184645
:10469000C1F3421401F01F06012707FA06F5012CA9
:1046A00001D10C3004E0022C01D1103000E01430B4
:1046B0001AB107682F43076002E00768AF4307603D
:1046C000F0BD00002DE9F04786B005460E460024F7
:1046D000A24600BFA1460027B08900B100BF2F4607
:1046E0002C8A4CF6FF700440F08804432C82AC897D
:1046F0004EF6F3100440B0883189084371890843AD
:104700000443AC81AC8A4FF6FF400440B0890443B7
:10471000AC8201A8FFF780FB1F48874202D1DDF879
:1047200010A001E0DDF80CA0A88900F4004040B121
:104730000AEBCA0000EB0A1031684900B0FBF1F83F
:1047400007E00AEBCA0000EB0A1031688900B0FBF1
:10475000F1F86420B8FBF0F004012009642101FBAA
:104760001089A88900F4004040B1322000EBC90054
:10477000B0FBF1F000F00700044308E0322000EB4A
:1047800009106421B0FBF1F000F00F0004432C810C
:1047900006B0BDE8F0870000003801400146888877
:1047A000C0F30800704700BFFEE730380A2801D286
:1047B000012070470020704700BF70472DE9FF4F70
:1047C00087B0044615461E46159F97F800907878E6
:1047D0000690069800FB09F0401C00F0FF0BABF1BF
:1047E00001001499484300900899C8B2FFF78CFB68
:1047F0000590A9F101002044A84209DBA54207DB8E
:104800000598B04204DCDDE905010844B04203DA52
:1048100000200BB0BDE8F08F0598301A00F0FF0AB9
:104820000899C8B2FFF76AFB0490281B0AFB09002D
:10483000801CC0B20390291BAAF1010000FB0910E3
:10484000801CC0B202900398584502DD4FF000086A
:1048500008E0009A03981044395C01220498FFF79D
:10486000E7FC8046BAF1000F11DD009A029810446F
:10487000395C00220498FFF7DBFC01900298584550
:1048800001DD4046C5E7019948EA0100C1E740461D
:10489000BFE7000010B529490878002102F0B4F8FC
:1048A00000B2274908800846B0F900002549097878
:1048B000084400282DDC2448007858B9FBF7DEFCBA
:1048C0000446C01704EB90708010A4EB80001B49D5
:1048D000088016E01C480078012803D10020174901
:1048E00008800EE018480078022803D101201349FF
:1048F000088006E014480078032802D102200F49FE
:1049000008800E490878012102F07EF800B20C49B7
:1049100008800A48008810B1012808D103E0082067
:104920000849087007E010200649087003E01820C5
:104930000449087000BF00BF10BD000056110020E0
:10494000501100205E1100206F11002070B5054647
:104950000E4686B9042D0EDAE91CC8B21021FCF708
:10496000D0FA002404E00020FCF75AFD601CC4B219
:10497000102CF8DB10E07EB1022D0DDD691EC8B2EF
:104980001021FCF7BEFA002404E00020FCF748FDEB
:10499000601CC4B2102CF8DB70BD000010B5042000
:1049A000FFF752FC104800681049B0FBF1F01049C5
:1049B00008700D4800680D49B0FBF1F44FF47A70AF
:1049C000444301200B4908804FF0E020006940F08B
:1049D00002004FF0E021086108464461006940F0A0
:1049E0000100086110BD00002400002040420F00BB
:1049F000BC100020BE10002070B5044604F05CFB23
:104A0000012810D00B480088844206D3094800884A
:104A1000B4FBF0F5284603F025FC06480088B4FBFB
:104A2000F0F100FB11444FF47A7104FB01F000F047
:104A300003F870BDBE10002070B5034600224FF091
:104A4000E02675690D4E367803FB06F44FF0E0263C
:104A5000B16910E04FF0E026B06988420BD088427F
:104A600002D20E1A324402E02E1A0E44324401469B
:104A7000A24200D300E0EDE700BF70BDBC100020F3
:104A800010B51D48007818B10120FDF7DBFA02E0EF
:104A90000020FDF7D7FA0024184800881849098833
:104AA000884201DD012400E000242046FCF7C0F824
:104AB0001448007804281DD10020134908701349B8
:104AC000088013490878012101F09EFF012000F0C1
:104AD00023F80E49088000200E4908700949087023
:104AE000FCF790F81CB105480088054908800020B3
:104AF0000249088010BD00006811002054110020F8
:104B0000521100205D1100206D110020581100206D
:104B1000561100206A1100202DE9FE43074656A2D7
:104B200007CA8DE807004FF00009C846012F0AD1D7
:104B300000205449088054490870082053490870DF
:104B40000020BDE8FE835048007880B94F4991F9B4
:104B500000101DF801004B490988084400B249497A
:104B600008804A480078401E40B2484908704648CC
:104B70000078012817D1454991F900101DF801006E
:104B800040490988081A00B23E4908803F48007829
:104B9000401C40B23D490870084690F900000828C2
:104BA00001D9082008703748B0F900001F2805DB3C
:104BB0000120354908701F20324908803148B0F97A
:104BC0000000002804DC00202F4908702D490880CF
:104BD0002C48B0F90000072802DC4FF0010819E06A
:104BE0002848B0F900000F2802DC4FF0020811E05D
:104BF0002448B0F90000172802DC4FF0030809E050
:104C00002048B0F900001F2802DC4FF0040801E042
:104C10004FF00508002422E0C8F105012144C8B284
:104C20001021FCF76EF9002515E005EB0419154974
:104C3000B1F90060F11706EB5171C910A6EBC10183
:104C400001EB4101124A02EB011111F80900FCF7D6
:104C5000E7FB681CC5B2102DE7DB601CC4B2032C57
:104C6000DADBC8F10501C8B207490978FFF76EFE23
:104C70000448B0F9000064E70101030304040506D9
:104C80000700000082110020841100208011002004
:104C9000C1B7000870B5002615480078401C1449BB
:104CA0000870087800EBD0714910A0EB4101104A60
:104CB0001170002418E0611DC8B21021FCF721F921
:104CC00000250DE0102000FB0450C6B20949084A37
:104CD000127801EB4211885DFCF7A2FB681CC5B29B
:104CE000102DEFDB601CC4B2022CE4DB70BD0000B1
:104CF0008A110020F1B6000808B5FCF7A1FB0620D8
:104D0000042300904148002102685020FCF714FF62
:104D1000062000903E4803780A2200213D48008882
:104D200000B2FCF77DFD0120394A00901288921FE5
:104D300011B2384A1288921E10B206230E22FCF7D6
:104D40006FFD0120009032480068C0F14000C3B2FE
:104D50000A222F480088143001B22E48008800B281
:104D6000FCF75EFD01202B4900900988891E08B2DE
:104D700006230E2226490988143109B2FCF750FD9A
:104D800001200090244803780A220021234800884B
:104D900000B2FCF745FD01201F4A00901288921FC7
:104DA00011B21E4A1288921E10B206230E22FCF780
:104DB00037FD0120009018480068C0F14000C3B2E0
:104DC0000A2215480088143001B21448008800B245
:104DD000FCF726FD0120114900900988891E08B2C0
:104DE00006230E220C490988143109B2FCF718FD7C
:104DF0000B4808230B2200900A48008801B21420B7
:104E0000FCF71CFEFCF7D6FE08BD000028160020AB
:104E100014160020101600201C1600201816002062
:104E2000E01C0020241600202DE9F04107463E46F4
:104E30002EB940F2FB4216A11AA0FBF75BFA1D48FF
:104E40000068864201D100241EE003F097F87569DE
:104E500003F0D8F818480068854203D01748006866
:104E6000854201D102240FE01548854205D1B06A80
:104E700008B9032408E0022406E01248854200D065
:104E80000DB9042400E001242046BDE8F0810000B3
:104E90002E2E5C4672656552544F535C7461736B81
:104EA000732E63004572726F723A25732C25640D60
:104EB0000A000000DC100020E0100020E4100020B8
:104EC000C4210020B021002000BF054A128802F052
:104ED0004002002AF9D0C2B2014B1B1D1A80704754
:104EE00000380140FBF78EFE01F0E6F859E02D484E
:104EF000007850BB2C48007880B92C48007818B155
:104F00000420FDF79FF802E00020FDF79BF8FCF776
:104F100009F825480078401C23490870FDF7E8FD92
:104F200023490870084600780A2804D101201D4949
:104F30000870FBF767FE1E480078082818D1022089
:104F400018490870FBF75EFE12E016480078012849
:104F500008D11848007810B901F056F908E0FFF7B9
:104F60008FFD05E00F480078022801D1FDF78AFE89
:104F70000F4800780B2808D10F48006803F024FB85
:104F80000E48006803F0F2FB0BE0094800780C289B
:104F900007D10948006803F017FB0848006803F0D0
:104FA0009BF9A4E7601100205F1100206811002028
:104FB000691100206D110020040000200C00002069
:104FC00008B5FCF73DFA00F0FDFB002400250026A3
:104FD00000BF00F0C6FE0028FBD004F07DF80546B7
:104FE000ADE304F079F80746F848006800287DD161
:104FF000FCF726FA1E213220FCF7EAFB11211E20C5
:10500000FCF7E6FB12213C20FCF7E2FB10213720E5
:10501000FCF7DEFB2B211920FCF7DAFB2B216420A7
:10502000FCF7D6FB34217520FCF7D2FB31210E2092
:10503000FCF7CEFB18210846FCF7CAFB24214E20C2
:10504000FCF7C6FB39215020FCF7C2FB0B216B207B
:10505000FCF7BEFB0B219620FCF7BAFB05210846A6
:10506000FCF7B6FB07210820FCF7B2FB0C21462019
:10507000FCF7AEFB38210A20FCF7AAFB19214620D9
:10508000FCF7A6FBD248006898B904F025F8401B4D
:10509000D0490860FBF7F2F84FF4487190FBF1F249
:1050A00001FB120000F5C870CB4908600120C84917
:1050B000086004F011F8401BC84908600846006801
:1050C000C7490968401A4CF2503188422BD9C3486D
:1050D0000068C3490860C3480068401CC1490860B3
:1050E000C1480068401CC049086000E0B9E2BD4901
:1050F000086800EBD0714910A0EB410149B9BB48E9
:105100000068401CB9490860B9480068401EB849A9
:105110000860B84800683238B6490860B648006888
:105120003238B5490860AC480068AA4909680844A3
:10513000AA490968884233D20020A5490860AF48CF
:105140000068401CAD49086008460068012806D187
:105150005F20AB490860AB480068AB490860A748CE
:105160000068022806D15F20A8490860A5480068A9
:10517000A7490860A1480068032806D15F20A54917
:105180000860A0480068A44908609C48006804289A
:1051900006D15F20A14908609A480068A0490860CC
:1051A00096480068002810DD0023022296480088F7
:1051B00001B29348008800B2FCF79EF9904800685D
:1051C00089490968401A8E4908608C48006801289E
:1051D00010DD002301228E48008801B28B48008830
:1051E00000B2FCF789F9894800687F490968401ACC
:1051F0008649086081480068022810DD00230422E7
:105200008548008801B28348008800B2FCF774F931
:105210008048006874490968401A7E4908607748E8
:105220000068032810DD002302227D48008801B2B7
:105230007A48008800B2FCF75FF9784800686A494C
:105240000968401A7549086000F08BFD062808D1EE
:1052500074480068022804DB72480068801E7149A7
:10526000086000F07EFD072808D16E4800682E28EF
:1052700004DC6C480068801C6A49086000F071FD1D
:105280000A2813D16848006880B90120664908607F
:105290000620664908606348006808306449086071
:1052A00014224FF49661092002F0CCFD5E4800689C
:1052B000012813D15D48006808305C4908605C48EB
:1052C000008803B208460088001D02B258480088D2
:1052D00001B25648008800B2FCF7BEF955481023C9
:1052E0001A4600904F48008801B20420FCF7A6FB44
:1052F0003F48027800234348008801B24E480088A6
:1053000000B2FCF7F9F83A480068032190FBF1F08D
:1053100000F0FF08012342463A480088C01C01B251
:1053200045480088801C00B2FCF7E6F8062343A23B
:1053300039212120FCF726FC062003230090414858
:10534000392102684420FCF7F7FB06233EA2002126
:105350002120FCF717FC0620012300903C48002187
:1053600002684420FCF7E8FB06233AA200216E20E5
:10537000FCF708FC0620012300901A48002102686F
:105380007A20FCF7D9FB154800684FF47A71B0FB1E
:10539000F1F8062003234246392100906C20FCF7E7
:1053A000CBFBFCF707FC21480068802802DD0020C9
:1053B0001D4908602848006838B9124800680B4940
:1053C000096808440F4908604FE047E0A011002039
:1053D000E0110020F4110020F8110020FC11002041
:1053E00000120020E8110020C0110020C41100208C
:1053F000D0110020C8110020CC110020E4110020A1
:10540000A411002098110020A8110020AC11002048
:10541000B0110020B4110020B8110020D4110020D8
:10542000D811002004120020941100208C110020BB
:105430009011002001DB0008EC11002073636F72F3
:10544000653A0000BC1100206C697665733A000073
:10545000DC1100204C3A00009C110020B848006884
:10546000B8490968401AB6490860B7480068C0F1F1
:105470004000B3490968884202DC0120B349086052
:10548000AF480068B0490968884202DC0020AF4993
:105490000860AB480068AC490968401AAC49096823
:1054A00088422CDCA6480068A74909680844A84936
:1054B0000968884223DBA7480068A3490968401AA5
:1054C000A549096888421ADAA24800689E49096815
:1054D0000844A1490968884211DD6FF013009E4914
:1054E000086014224FF4FA71092002F0ABFC9B48CB
:1054F0000068401C99490860002099490860994853
:10550000006800F10804A4F108009749096888427E
:105510001EDC9548016804F10800814218DC9348BC
:1055200000680C2814DA91480068042810DD5F2018
:105530008E4908606FF031008B4908606422114683
:10554000092002F07FFC8A480068401E88490860F4
:10555000A4F108008749096888421DDC8548016874
:1055600004F10800814217DC834800680C2813DA34
:105570008148006804280FDD6FF031007E49086023
:105580007C49086064221146092002F05BFC7848DF
:105590000068401E76490860A4F108007749096850
:1055A00088421DDC7548016804F10800814217DC5F
:1055B000734800680C2813DA7148006804280FDD6E
:1055C0006FF031006E4908606C4908606422114632
:1055D000092002F037FC66480068401E64490860F4
:1055E000A4F1080067490968884221DC6548016820
:1055F00004F1080081421BDC634800680C2817DABC
:1056000061480068042813DDC8205F4908606FF016
:1056100031005C49086000205C4908606422114642
:10562000092002F00FFC52480068401E50490860F3
:1056300055480068012805DA002054490860C82050
:10564000514908604A48006810B901205049086073
:1056500003F042FDC61B1E2E03D2C6F11E0002F04F
:1056600001FE4B48006801284FD1FBF7E9FE0823F3
:1056700048A20A210720FCF785FA0623AFF244224C
:105680001E210720FCF77EFA0620032300903348F2
:105690001E2102682C20FCF74FFA062340A2282185
:1056A0000720FCF76FFA0620012300903E482821CE
:1056B00002682C20FCF740FA06233CA23221072086
:1056C000FCF760FA3C4800684FF47A71B0FBF1F8DF
:1056D000062003234246322100903C20FCF72CFA9E
:1056E000FCF768FA2248006830B9052020490860B4
:1056F0004FF47A7002F0B6FD00F033FB062804D1B7
:1057000003F0EAFC054601F007FA00F02AFB0B283B
:1057100008D12A48006802F057FF2948006803F0C2
:1057200025F80BE000F01DFB0C2807D1234800688A
:1057300002F04AFF2248006802F0CEFD00BF50E4AC
:1057400098110020C4110020D01100209C110020CD
:1057500090110020EC1100208C110020BC110020C1
:105760009411002004120020A8110020A411002090
:10577000DC110020B0110020AC110020B811002075
:10578000B4110020D8110020D4110020E411002011
:10579000A011002047616D65204F766572210000E1
:1057A0006C6576656C3A0000E811002074696D65DF
:1057B0002873293A00000000FC110020040000209A
:1057C0001000002000202A4908602A4908602A4960
:1057D00008600820294908600020294908602949F3
:1057E00008605F20284908600020284908605F2081
:1057F000274908600020274908605F202649086083
:1058000000202649086026490860032025490860D1
:105810000120254908604FF41670244908604000B3
:10582000234908600A20234908605F202249086054
:1058300000202249086005202149086000202149F4
:105840000860214908600120204908605F20204944
:10585000086000201F4908701F4908601F49086040
:105860001F4908601F4908601E201F4908607047D3
:105870008C1100209011002094110020981100201C
:105880009C110020A0110020A4110020A8110020CC
:10589000AC110020B0110020B4110020B81100207C
:1058A000BC110020C0110020C4110020C81100202C
:1058B000CC110020D0110020D4110020D8110020DC
:1058C000DC110020E0110020E4110020E81100208C
:1058D000EC110020F0110020F4110020F81100203C
:1058E000FC110020001200200412002001E0FFF74C
:1058F00067FBFCE708B500248020AB490860C020A6
:10590000AA490860FAF7BAFC2A2190FBF1F201FBE0
:105910001200401CA6490860FAF7B0FC2A2190FB4F
:10592000F1F201FB1200401CA24908602020A249AC
:1059300008600A20A14908600020A1490860A14828
:1059400040238022002100900846FCF777F8FCF7FE
:1059500031F922E000F005FA0B2812D19A480068CC
:1059600002F032FE9948006802F000FF954840239B
:105970008022002100900846FCF760F8FCF71AF935
:105980000BE000F0EEF90C2807D18F48006802F018
:105990001BFE8E48006802F09FFC00F0D9F9002839
:1059A000D8D000E1002C7DD100F0D2F9012802D13D
:1059B0002020814908607C480068801E7A49086080
:1059C0007A480068801E794908607B480068401F5B
:1059D00079490860084600680A2190FBF1F0774990
:1059E0000968081A75490860FFF786F97348006866
:1059F000002802DA002071490860704800684028D9
:105A000000DD0124684800680A3060B980206649DA
:105A10000860FAF733FC2A2190FBF1F201FB120037
:105A2000401C63490860614800680A3060B9802002
:105A30005E490860FAF722FC2A2190FBF1F201FB93
:105A40001200401C5B49086057480068142812DBAC
:105A5000554800681F280EDC5848006854490968FA
:105A6000884207DB554800680830514909681431FD
:105A7000884200DD01244D480068142814DB4B489F
:105A800000681F2810DC4D4800684A4909688842B0
:105A900007DB4A48006808304649096814318842E3
:105AA00002DD00E010E001243F480068102803D028
:105AB0003E480068102804D141480068401C404915
:105AC00008601E2002F0CEFB012C53D14FF4FA7077
:105AD00002F0C8FBFBF7B4FC3D48202380220021E4
